{
  "contractName": "Exchange",
  "abi": [
    {
      "constant": true,
      "inputs": [
        {
          "name": "",
          "type": "uint256"
        }
      ],
      "name": "bids",
      "outputs": [
        {
          "name": "maker",
          "type": "address"
        },
        {
          "name": "taker",
          "type": "address"
        },
        {
          "name": "status",
          "type": "string"
        },
        {
          "name": "sort",
          "type": "string"
        },
        {
          "name": "startTime",
          "type": "uint256"
        },
        {
          "name": "endTime",
          "type": "uint256"
        },
        {
          "name": "amount",
          "type": "uint256"
        },
        {
          "name": "costPerKW",
          "type": "uint256"
        }
      ],
      "payable": false,
      "stateMutability": "view",
      "type": "function"
    },
    {
      "constant": true,
      "inputs": [],
      "name": "maker",
      "outputs": [
        {
          "name": "",
          "type": "address"
        }
      ],
      "payable": false,
      "stateMutability": "view",
      "type": "function"
    },
    {
      "constant": true,
      "inputs": [],
      "name": "taker",
      "outputs": [
        {
          "name": "",
          "type": "address"
        }
      ],
      "payable": false,
      "stateMutability": "view",
      "type": "function"
    },
    {
      "inputs": [],
      "payable": false,
      "stateMutability": "nonpayable",
      "type": "constructor"
    },
    {
      "constant": false,
      "inputs": [
        {
          "name": "n",
          "type": "uint256"
        }
      ],
      "name": "getBid",
      "outputs": [
        {
          "name": "",
          "type": "bytes32"
        },
        {
          "name": "",
          "type": "bytes32"
        },
        {
          "name": "",
          "type": "uint256"
        },
        {
          "name": "",
          "type": "uint256"
        },
        {
          "name": "",
          "type": "uint256"
        },
        {
          "name": "",
          "type": "uint256"
        }
      ],
      "payable": false,
      "stateMutability": "nonpayable",
      "type": "function"
    },
    {
      "constant": false,
      "inputs": [
        {
          "name": "n",
          "type": "uint256"
        }
      ],
      "name": "getBidMaker",
      "outputs": [
        {
          "name": "",
          "type": "address"
        }
      ],
      "payable": false,
      "stateMutability": "nonpayable",
      "type": "function"
    },
    {
      "constant": false,
      "inputs": [
        {
          "name": "n",
          "type": "uint256"
        }
      ],
      "name": "getBidTaker",
      "outputs": [
        {
          "name": "",
          "type": "address"
        }
      ],
      "payable": false,
      "stateMutability": "nonpayable",
      "type": "function"
    },
    {
      "constant": false,
      "inputs": [
        {
          "name": "sort",
          "type": "string"
        },
        {
          "name": "startTime",
          "type": "uint256"
        },
        {
          "name": "endTime",
          "type": "uint256"
        },
        {
          "name": "amount",
          "type": "uint256"
        },
        {
          "name": "costPerKW",
          "type": "uint256"
        }
      ],
      "name": "createBid",
      "outputs": [
        {
          "name": "",
          "type": "bool"
        }
      ],
      "payable": false,
      "stateMutability": "nonpayable",
      "type": "function"
    },
    {
      "constant": false,
      "inputs": [
        {
          "name": "_sender",
          "type": "address"
        },
        {
          "name": "sort",
          "type": "string"
        },
        {
          "name": "startTime",
          "type": "uint256"
        },
        {
          "name": "endTime",
          "type": "uint256"
        },
        {
          "name": "amount",
          "type": "uint256"
        },
        {
          "name": "costPerKW",
          "type": "uint256"
        }
      ],
      "name": "doCreateBid",
      "outputs": [
        {
          "name": "",
          "type": "bool"
        }
      ],
      "payable": false,
      "stateMutability": "nonpayable",
      "type": "function"
    },
    {
      "constant": false,
      "inputs": [
        {
          "name": "n",
          "type": "uint256"
        }
      ],
      "name": "PostBid",
      "outputs": [
        {
          "name": "",
          "type": "bool"
        }
      ],
      "payable": false,
      "stateMutability": "nonpayable",
      "type": "function"
    },
    {
      "constant": false,
      "inputs": [
        {
          "name": "_sender",
          "type": "address"
        },
        {
          "name": "n",
          "type": "uint256"
        }
      ],
      "name": "doPostBid",
      "outputs": [
        {
          "name": "",
          "type": "bool"
        }
      ],
      "payable": false,
      "stateMutability": "nonpayable",
      "type": "function"
    },
    {
      "constant": false,
      "inputs": [
        {
          "name": "n",
          "type": "uint256"
        }
      ],
      "name": "closeBid",
      "outputs": [
        {
          "name": "",
          "type": "bool"
        }
      ],
      "payable": false,
      "stateMutability": "nonpayable",
      "type": "function"
    },
    {
      "constant": false,
      "inputs": [
        {
          "name": "_sender",
          "type": "address"
        },
        {
          "name": "n",
          "type": "uint256"
        }
      ],
      "name": "doCloseBid",
      "outputs": [
        {
          "name": "",
          "type": "bool"
        }
      ],
      "payable": false,
      "stateMutability": "nonpayable",
      "type": "function"
    },
    {
      "constant": true,
      "inputs": [
        {
          "name": "a",
          "type": "string"
        },
        {
          "name": "b",
          "type": "string"
        }
      ],
      "name": "compareStrings",
      "outputs": [
        {
          "name": "",
          "type": "bool"
        }
      ],
      "payable": false,
      "stateMutability": "view",
      "type": "function"
    },
    {
      "constant": false,
      "inputs": [
        {
          "name": "source",
          "type": "string"
        }
      ],
      "name": "stringToBytes32",
      "outputs": [
        {
          "name": "result",
          "type": "bytes32"
        }
      ],
      "payable": false,
      "stateMutability": "nonpayable",
      "type": "function"
    },
    {
      "constant": false,
      "inputs": [],
      "name": "bidsCount",
      "outputs": [
        {
          "name": "",
          "type": "uint256"
        }
      ],
      "payable": false,
      "stateMutability": "nonpayable",
      "type": "function"
    },
    {
      "constant": false,
      "inputs": [
        {
          "name": "startTime",
          "type": "uint256"
        },
        {
          "name": "endTime",
          "type": "uint256"
        },
        {
          "name": "cost",
          "type": "uint256"
        }
      ],
      "name": "queryDemandBids",
      "outputs": [
        {
          "components": [
            {
              "name": "maker",
              "type": "address"
            },
            {
              "name": "taker",
              "type": "address"
            },
            {
              "name": "status",
              "type": "string"
            },
            {
              "name": "sort",
              "type": "string"
            },
            {
              "name": "startTime",
              "type": "uint256"
            },
            {
              "name": "endTime",
              "type": "uint256"
            },
            {
              "name": "amount",
              "type": "uint256"
            },
            {
              "name": "costPerKW",
              "type": "uint256"
            }
          ],
          "name": "",
          "type": "tuple[]"
        }
      ],
      "payable": false,
      "stateMutability": "nonpayable",
      "type": "function"
    },
    {
      "constant": false,
      "inputs": [
        {
          "name": "startTime",
          "type": "uint256"
        },
        {
          "name": "endTime",
          "type": "uint256"
        },
        {
          "name": "cost",
          "type": "uint256"
        }
      ],
      "name": "demandBidsCount",
      "outputs": [
        {
          "name": "",
          "type": "uint256"
        }
      ],
      "payable": false,
      "stateMutability": "nonpayable",
      "type": "function"
    }
  ],
  "bytecode": "0x6060604052341561000f57600080fd5b611ee28061001e6000396000f3006060604052600436106100f1576000357c0100000000000000000000000000000000000000000000000000000000900463ffffffff16806312aefdf7146100f657806319f4f8191461013f5780633c889e6f146101a25780633d715fa91461020c5780633fbffcef146102915780634423c5f1146102ba57806350655d8c1461047e57806377a60da7146104d3578063782b36021461058b5780639d03425a146105e0578063bed34bba1461063a578063cfb51928146106f2578063d7babd8c1461076b578063e014a748146107ce578063eb58fdd514610867578063f6a89810146108a2578063fae66be8146108dd575b600080fd5b341561010157600080fd5b6101296004808035906020019091908035906020019091908035906020019091905050610937565b6040518082815260200191505060405180910390f35b341561014a57600080fd5b610160600480803590602001909190505061094e565b604051808273ffffffffffffffffffffffffffffffffffffffff1673ffffffffffffffffffffffffffffffffffffffff16815260200191505060405180910390f35b34156101ad57600080fd5b6101c36004808035906020019091905050610998565b6040518087600019166000191681526020018660001916600019168152602001858152602001848152602001838152602001828152602001965050505050505060405180910390f35b341561021757600080fd5b61023f6004808035906020019091908035906020019091908035906020019091905050610bbc565b60405180806020018281038252838181518152602001915080516000925b81841015610280578284906020019060200201518152602001926001019261025d565b925050509250505060405180910390f35b341561029c57600080fd5b6102a4611171565b6040518082815260200191505060405180910390f35b34156102c557600080fd5b6102db600480803590602001909190505061117e565b604051808973ffffffffffffffffffffffffffffffffffffffff1673ffffffffffffffffffffffffffffffffffffffff1681526020018873ffffffffffffffffffffffffffffffffffffffff1673ffffffffffffffffffffffffffffffffffffffff16815260200180602001806020018781526020018681526020018581526020018481526020018381038352898181546001816001161561010002031660029004815260200191508054600181600116156101000203166002900480156103e45780601f106103b9576101008083540402835291602001916103e4565b820191906000526020600020905b8154815290600101906020018083116103c757829003601f168201915b50508381038252888181546001816001161561010002031660029004815260200191508054600181600116156101000203166002900480156104675780601f1061043c57610100808354040283529160200191610467565b820191906000526020600020905b81548152906001019060200180831161044a57829003601f168201915b50509a505050505050505050505060405180910390f35b341561048957600080fd5b610491611213565b604051808273ffffffffffffffffffffffffffffffffffffffff1673ffffffffffffffffffffffffffffffffffffffff16815260200191505060405180910390f35b34156104de57600080fd5b610571600480803573ffffffffffffffffffffffffffffffffffffffff1690602001909190803590602001908201803590602001908080601f01602080910402602001604051908101604052809392919081815260200183838082843782019150505050505091908035906020019091908035906020019091908035906020019091908035906020019091905050611238565b604051808215151515815260200191505060405180910390f35b341561059657600080fd5b61059e61140c565b604051808273ffffffffffffffffffffffffffffffffffffffff1673ffffffffffffffffffffffffffffffffffffffff16815260200191505060405180910390f35b34156105eb57600080fd5b610620600480803573ffffffffffffffffffffffffffffffffffffffff16906020019091908035906020019091905050611432565b604051808215151515815260200191505060405180910390f35b341561064557600080fd5b6106d8600480803590602001908201803590602001908080601f0160208091040260200160405190810160405280939291908181526020018383808284378201915050505050509190803590602001908201803590602001908080601f016020809104026020016040519081016040528093929190818152602001838380828437820191505050505050919050506115e4565b604051808215151515815260200191505060405180910390f35b34156106fd57600080fd5b61074d600480803590602001908201803590602001908080601f016020809104026020016040519081016040528093929190818152602001838380828437820191505050505050919050506116bd565b60405180826000191660001916815260200191505060405180910390f35b341561077657600080fd5b61078c60048080359060200190919050506116ee565b604051808273ffffffffffffffffffffffffffffffffffffffff1673ffffffffffffffffffffffffffffffffffffffff16815260200191505060405180910390f35b34156107d957600080fd5b61084d600480803590602001908201803590602001908080601f01602080910402602001604051908101604052809392919081815260200183838082843782019150505050505091908035906020019091908035906020019091908035906020019091908035906020019091905050611738565b604051808215151515815260200191505060405180910390f35b341561087257600080fd5b6108886004808035906020019091905050611752565b604051808215151515815260200191505060405180910390f35b34156108ad57600080fd5b6108c36004808035906020019091905050611764565b604051808215151515815260200191505060405180910390f35b34156108e857600080fd5b61091d600480803573ffffffffffffffffffffffffffffffffffffffff16906020019091908035906020019091905050611776565b604051808215151515815260200191505060405180910390f35b6000610944848484610bbc565b5190509392505050565b600060028281548110151561095f57fe5b906000526020600020906008020160010160009054906101000a900473ffffffffffffffffffffffffffffffffffffffff169050919050565b600080600080600080610a626002888154811015156109b357fe5b90600052602060002090600802016002018054600181600116156101000203166002900480601f016020809104026020016040519081016040528092919081815260200182805460018160011615610100020316600290048015610a585780601f10610a2d57610100808354040283529160200191610a58565b820191906000526020600020905b815481529060010190602001808311610a3b57829003601f168201915b50505050506116bd565b610b23600289815481101515610a7457fe5b90600052602060002090600802016003018054600181600116156101000203166002900480601f016020809104026020016040519081016040528092919081815260200182805460018160011615610100020316600290048015610b195780601f10610aee57610100808354040283529160200191610b19565b820191906000526020600020905b815481529060010190602001808311610afc57829003601f168201915b50505050506116bd565b600289815481101515610b3257fe5b90600052602060002090600802016004015460028a815481101515610b5357fe5b90600052602060002090600802016005015460028b815481101515610b7457fe5b90600052602060002090600802016006015460028c815481101515610b9557fe5b90600052602060002090600802016007015495509550955095509550955091939550919395565b610bc4611b15565b600080600090505b610bd4611171565b811015610ef557610cd2600282815481101515610bed57fe5b90600052602060002090600802016003018054600181600116156101000203166002900480601f016020809104026020016040519081016040528092919081815260200182805460018160011615610100020316600290048015610c925780601f10610c6757610100808354040283529160200191610c92565b820191906000526020600020905b815481529060010190602001808311610c7557829003601f168201915b50505050506040805190810160405280600681526020017f44454d414e4400000000000000000000000000000000000000000000000000008152506115e4565b15610ee85785600282815481101515610ce757fe5b90600052602060002090600802016004015410158015610d27575084600282815481101515610d1257fe5b90600052602060002090600802016005015411155b8015610d53575083600282815481101515610d3e57fe5b90600052602060002090600802016007015411155b15610ee757818054806001018281610d6b9190611b29565b91600052602060002090600802016000600284815481101515610d8a57fe5b906000526020600020906008020190919091506000820160009054906101000a900473ffffffffffffffffffffffffffffffffffffffff168160000160006101000a81548173ffffffffffffffffffffffffffffffffffffffff021916908373ffffffffffffffffffffffffffffffffffffffff1602179055506001820160009054906101000a900473ffffffffffffffffffffffffffffffffffffffff168160010160006101000a81548173ffffffffffffffffffffffffffffffffffffffff021916908373ffffffffffffffffffffffffffffffffffffffff16021790555060028201816002019080546001816001161561010002031660029004610e92929190611b5b565b5060038201816003019080546001816001161561010002031660029004610eba929190611b5b565b50600482015481600401556005820154816005015560068201548160060155600782015481600701555050505b5b8080600101915050610bcc565b81805480602002602001604051908101604052809291908181526020016000905b82821015611162578382906000526020600020906008020161010060405190810160405290816000820160009054906101000a900473ffffffffffffffffffffffffffffffffffffffff1673ffffffffffffffffffffffffffffffffffffffff1673ffffffffffffffffffffffffffffffffffffffff1681526020016001820160009054906101000a900473ffffffffffffffffffffffffffffffffffffffff1673ffffffffffffffffffffffffffffffffffffffff1673ffffffffffffffffffffffffffffffffffffffff168152602001600282018054600181600116156101000203166002900480601f0160208091040260200160405190810160405280929190818152602001828054600181600116156101000203166002900480156110805780601f1061105557610100808354040283529160200191611080565b820191906000526020600020905b81548152906001019060200180831161106357829003601f168201915b50505050508152602001600382018054600181600116156101000203166002900480601f0160208091040260200160405190810160405280929190818152602001828054600181600116156101000203166002900480156111225780601f106110f757610100808354040283529160200191611122565b820191906000526020600020905b81548152906001019060200180831161110557829003601f168201915b5050505050815260200160048201548152602001600582015481526020016006820154815260200160078201548152505081526020019060010190610f16565b50505050925050509392505050565b6000600280549050905090565b60028181548110151561118d57fe5b90600052602060002090600802016000915090508060000160009054906101000a900473ffffffffffffffffffffffffffffffffffffffff16908060010160009054906101000a900473ffffffffffffffffffffffffffffffffffffffff1690806002019080600301908060040154908060050154908060060154908060070154905088565b6000809054906101000a900473ffffffffffffffffffffffffffffffffffffffff1681565b6000611242611be2565b610100604051908101604052808973ffffffffffffffffffffffffffffffffffffffff1681526020018973ffffffffffffffffffffffffffffffffffffffff1681526020016040805190810160405280600781526020017f63726561746564000000000000000000000000000000000000000000000000008152508152602001888152602001878152602001868152602001858152602001848152509050600280548060010182816112f49190611b29565b9160005260206000209060080201600083909190915060008201518160000160006101000a81548173ffffffffffffffffffffffffffffffffffffffff021916908373ffffffffffffffffffffffffffffffffffffffff16021790555060208201518160010160006101000a81548173ffffffffffffffffffffffffffffffffffffffff021916908373ffffffffffffffffffffffffffffffffffffffff16021790555060408201518160020190805190602001906113b4929190611c60565b5060608201518160030190805190602001906113d1929190611c60565b506080820151816004015560a0820151816005015560c0820151816006015560e0820151816007015550505060019150509695505050505050565b600160009054906101000a900473ffffffffffffffffffffffffffffffffffffffff1681565b60008060008060008060008060006114498a610998565b97509750975097509750975060028a81548110151561146457fe5b906000526020600020906008020160000160009054906101000a900473ffffffffffffffffffffffffffffffffffffffff16915060028a8154811015156114a757fe5b906000526020600020906008020160010160009054906101000a900473ffffffffffffffffffffffffffffffffffffffff1690508173ffffffffffffffffffffffffffffffffffffffff168b73ffffffffffffffffffffffffffffffffffffffff16148015611559575061155861151d89611928565b6040805190810160405280600681526020017f706f7374656400000000000000000000000000000000000000000000000000008152506115e4565b5b156115d1576040805190810160405280600681526020017f636c6f736564000000000000000000000000000000000000000000000000000081525060028b8154811015156115a357fe5b906000526020600020906008020160020190805190602001906115c7929190611ce0565b50600198506115d6565b600098505b505050505050505092915050565b6000816040518082805190602001908083835b60208310151561161c57805182526020820191506020810190506020830392506115f7565b6001836020036101000a038019825116818451168082178552505050505050905001915050604051809103902060001916836040518082805190602001908083835b602083101515611683578051825260208201915060208101905060208303925061165e565b6001836020036101000a03801982511681845116808217855250505050505090500191505060405180910390206000191614905092915050565b60006116c7611d60565b8290506000815114156116e057600060010291506116e8565b602083015191505b50919050565b60006002828154811015156116ff57fe5b906000526020600020906008020160000160009054906101000a900473ffffffffffffffffffffffffffffffffffffffff169050919050565b6000611748338787878787611238565b5095945050505050565b600061175e3383611776565b50919050565b60006117703383611432565b50919050565b600080600080600080600080600061178d8a610998565b97509750975097509750975060028a8154811015156117a857fe5b906000526020600020906008020160000160009054906101000a900473ffffffffffffffffffffffffffffffffffffffff16915060028a8154811015156117eb57fe5b906000526020600020906008020160010160009054906101000a900473ffffffffffffffffffffffffffffffffffffffff1690508173ffffffffffffffffffffffffffffffffffffffff168b73ffffffffffffffffffffffffffffffffffffffff1614801561189d575061189c61186189611928565b6040805190810160405280600781526020017f63726561746564000000000000000000000000000000000000000000000000008152506115e4565b5b15611915576040805190810160405280600681526020017f706f73746564000000000000000000000000000000000000000000000000000081525060028b8154811015156118e757fe5b9060005260206000209060080201600201908051906020019061190b929190611ce0565b506001985061191a565b600098505b505050505050505092915050565b611930611d74565b611938611d60565b6000806000611945611d60565b60206040518059106119545750595b9080825280601f01601f1916602001820160405250945060009350600092505b6020831015611a32578260080260020a876001900402600102915060007f010000000000000000000000000000000000000000000000000000000000000002827effffffffffffffffffffffffffffffffffffffffffffffffffffffffffffff1916141515611a25578185858151811015156119ec57fe5b9060200101907effffffffffffffffffffffffffffffffffffffffffffffffffffffffffffff1916908160001a90535083806001019450505b8280600101935050611974565b83604051805910611a405750595b9080825280601f01601f19166020018201604052509050600092505b83831015611b08578483815181101515611a7257fe5b9060200101517f010000000000000000000000000000000000000000000000000000000000000090047f0100000000000000000000000000000000000000000000000000000000000000028184815181101515611acb57fe5b9060200101907effffffffffffffffffffffffffffffffffffffffffffffffffffffffffffff1916908160001a9053508280600101935050611a5c565b8095505050505050919050565b602060405190810160405280600081525090565b815481835581811511611b5657600802816008028360005260206000209182019101611b559190611d88565b5b505050565b828054600181600116156101000203166002900490600052602060002090601f016020900481019282601f10611b945780548555611bd1565b82800160010185558215611bd157600052602060002091601f016020900482015b82811115611bd0578254825591600101919060010190611bb5565b5b509050611bde9190611e35565b5090565b61010060405190810160405280600073ffffffffffffffffffffffffffffffffffffffff168152602001600073ffffffffffffffffffffffffffffffffffffffff168152602001611c31611e5a565b8152602001611c3e611e5a565b8152602001600081526020016000815260200160008152602001600081525090565b828054600181600116156101000203166002900490600052602060002090601f016020900481019282601f10611ca157805160ff1916838001178555611ccf565b82800160010185558215611ccf579182015b82811115611cce578251825591602001919060010190611cb3565b5b509050611cdc9190611e35565b5090565b828054600181600116156101000203166002900490600052602060002090601f016020900481019282601f10611d2157805160ff1916838001178555611d4f565b82800160010185558215611d4f579182015b82811115611d4e578251825591602001919060010190611d33565b5b509050611d5c9190611e35565b5090565b602060405190810160405280600081525090565b602060405190810160405280600081525090565b611e3291905b80821115611e2e57600080820160006101000a81549073ffffffffffffffffffffffffffffffffffffffff02191690556001820160006101000a81549073ffffffffffffffffffffffffffffffffffffffff0219169055600282016000611df59190611e6e565b600382016000611e059190611e6e565b600482016000905560058201600090556006820160009055600782016000905550600801611d8e565b5090565b90565b611e5791905b80821115611e53576000816000905550600101611e3b565b5090565b90565b602060405190810160405280600081525090565b50805460018160011615610100020316600290046000825580601f10611e945750611eb3565b601f016020900490600052602060002090810190611eb29190611e35565b5b505600a165627a7a723058208df60b1b52a1d7da0f6cdc101a17eba28dc1e114a185270c68c0c160faa042730029",
  "source": "pragma solidity ^0.4.18;\ncontract Exchange {\n\n  address public maker;\n  address public taker;\n\n\n  struct Bid {\n    address maker;\n    address taker;\n    string status;\n    string sort;\n    uint startTime;\n    uint endTime;\n    uint amount;\n    uint costPerKW;\n  }\n\n\n  Bid[] public bids;\n\n\n  function Exchange() public {\n  }\n\n  function getBid(uint n) public returns(bytes32, bytes32,uint, uint, uint, uint){\n    return(stringToBytes32(bids[n].status), stringToBytes32(bids[n].sort), bids[n].startTime, bids[n].endTime, bids[n].amount, bids[n].costPerKW);\n  }\n\n  function getBidMaker(uint n) public returns(address){\n    return bids[n].maker;\n  }\n\n  function getBidTaker(uint n) public returns(address){\n    return bids[n].taker;\n  }\n\n  function createBid(string sort,\n                     uint startTime,\n                     uint endTime,\n                     uint amount,\n                     uint costPerKW) public returns (bool){\n    // To be able to test\n    doCreateBid(msg.sender, sort, startTime, endTime, amount, costPerKW);\n  }\n\n  function doCreateBid(address _sender, string sort, uint startTime, uint endTime, uint amount, uint costPerKW)public returns (bool){\n    Bid memory bid = Bid({maker: _sender,\n                          taker: _sender,\n                          status: 'created',\n                          sort: sort,\n                          startTime: startTime,\n                          endTime: endTime,\n                          amount: amount,\n                          costPerKW: costPerKW});\n    bids.push(bid);\n    return true;\n  }\n\n  function PostBid(uint n) public returns (bool) {\n    doPostBid(msg.sender, n);\n  }\n\n  function doPostBid(address _sender, uint n) public returns (bool){\n    var (status, sort, startTime, endTime, amount, cost) = getBid(n);\n    var m = bids[n].maker;\n    var t = bids[n].taker;\n    if(_sender == m && compareStrings(bytes32ToString(status), 'created')){\n      bids[n].status = 'posted';\n      return true;\n    }\n    return false;\n  }\n\n  function closeBid(uint n) public returns (bool){\n    doCloseBid(msg.sender, n);\n  }\n\n  function doCloseBid(address _sender, uint n) public returns (bool){\n    var (status, sort, startTime, endTime, amount, cost) = getBid(n);\n    var m = bids[n].maker;\n    var t = bids[n].taker;\n    if(_sender == m && compareStrings(bytes32ToString(status), 'posted')){\n      bids[n].status = 'closed';\n      return true;\n    }\n    return false;\n  }\n\n  function compareStrings(string a, string b) public view returns (bool){\n    return keccak256(a) == keccak256(b);\n  }\n\n  function stringToBytes32(string memory source) public returns (bytes32 result) {\n      bytes memory tempEmptyStringTest = bytes(source);\n      if (tempEmptyStringTest.length == 0) {\n          return 0x0;\n      }\n      assembly {\n          result := mload(add(source, 32))\n      }\n  }\n\n  function bytes32ToString(bytes32 x) constant private returns (string) {\n      bytes memory bytesString = new bytes(32);\n      uint charCount = 0;\n      for (uint j = 0; j < 32; j++) {\n          byte char = byte(bytes32(uint(x) * 2 ** (8 * j)));\n          if (char != 0) {\n              bytesString[charCount] = char;\n              charCount++;\n          }\n      }\n      bytes memory bytesStringTrimmed = new bytes(charCount);\n      for (j = 0; j < charCount; j++) {\n          bytesStringTrimmed[j] = bytesString[j];\n      }\n      return string(bytesStringTrimmed);\n  }\n\n  function bidsCount() public returns (uint256) {\n    return bids.length;\n  }\n\n\n  function queryDemandBids(uint startTime, uint endTime, uint cost) public returns (Bid[]){\n    Bid[] demandBids;\n    for (uint i=0; i < bidsCount(); i++) {\n      if (compareStrings(bids[i].sort, 'DEMAND')){\n        if(bids[i].startTime >= startTime && bids[i].endTime <= endTime && bids[i].costPerKW <= cost){\n          demandBids.push(bids[i]);\n        }\n      }\n    }\n    return demandBids;\n  }\n\n  function demandBidsCount(uint startTime, uint endTime, uint cost) public returns (uint) {\n    return queryDemandBids(startTime, endTime, cost).length;\n  }\n\n}\n",
  "sourcePath": "/Users/mq/smart-contracts/0x/contracts/Exchange.sol",
  "compiler": {
    "name": "solc",
    "version": "0.4.19+commit.c4cbbb05.Emscripten.clang"
  },
  "schemaVersion": "1.0.1",
  "updatedAt": "2018-07-05T14:51:30.122Z"
}